:1000000000800020BD010000218A0100D989010083
:10001000D9890100D9890100D9890100D989010054
:10002000D9890100D9890100D9890100218A0100FB
:10003000218A0100D9890100218A0100C9890100B2
:10004000218A0100218A0100218A0100218A010000
:10005000218A0100218A0100218A0100218A0100F0
:10006000218A0100218A0100218A0100218A0100E0
:10007000218A0100218A0100218A0100218A0100D0
:10008000218A0100218A0100218A0100218A0100C0
:10009000218A0100218A0100218A0100218A0100B0
:1000A000218A0100218A0100218A0100218A0100A0
:1000B000218A0100218A0100218A0100218A010090
:1000C000218A0100218A0100218A0100218A010080
:1000D000218A0100218A0100218A0100218A010070
:1000E000218A0100218A0100218A0100218A010060
:1000F000218A01006D980100218A0100C99F010039
:10010000218A010045A50100218A0100218A010000
:10011000218A0100218A0100218A0100218A01002F
:10012000218A0100218A0100218A0100218A01001F
:10013000218A0100218A0100218A0100DD86010057
:10014000218A0100218A0100218A0100218A0100FF
:1001500001900100199001003190010049900100C7
:10016000218A0100218A0100218A0100218A0100DF
:10017000218A0100218A0100218A0100218A0100CF
:10018000218A0100218A0100218A0100218A0100BF
:10019000218A0100218A0100218A0100218A0100AF
:1001A000218A0100218A0100218A0100218A01009F
:1001B000218A0100218A0100218A0100574B4CF25B
:1001C000205210B51A804DF628121A8000BF00BFC9
:1001D00018F02AFC524B4FF010621A60514A9A6094
:1001E000514ADA60A3F53043203B1A6812F480725A
:1001F00004D14E490A604FF4A8521A604C4B1A7849
:10020000110703D51A7842F008021A70494B4A4C7C
:100210004A482A221A704A4A00239918A14203D256
:10022000195899500433F8E7464B474900228B424E
:1002300002D243F8042BFAE74448454900235A58B0
:100240001A500433B3F5DE7FF9D1424B424A802184
:1002500003F8011B9342FBD1404B3C4A1A60404BD0
:100260008A221A70A3F5805324225A70A0221A7091
:100270009A799207FCD59A79D406FCD4394A9379B5
:1002800003F00C03082B374BF9D103221A714622D5
:100290005A719A799006FCD5324A9179314B4906C8
:1002A000FBD5314A4FF08271116009215160202243
:1002B0001A709A7902F00C020C2AFAD12B4B2C4AB4
:1002C0001A602C4B2C4A1A6000225A60072243F80D
:1002D000042C2A4AC3F80C2D62B618F015FD134BF6
:1002E0001B68DA0705D5264818F0B2FC254B264ACC
:1002F0001A60264B1B785B0609D5224C224A2368DC
:10030000934204D11E4818F0A3FC002323601CF084
:10031000F5FE18F08FFB18F0E1FEFEE70E20054019
:1003200030800440823F04000100002B14D00340C1
:1003300002D0074000E0074054D9FF1F8CC80200DC
:100340000084FF1F58D9FF1F6C2900200082FF1F67
:100350000000000000E400E05FE400E008ED00E0E1
:1003600000500640004006404480044004800440A1
:10037000C010050014E000E0BFD401000000202000
:10038000283D8E641CE00340A5C3945A00F007404A
:10039000FFFFFFFFFFFFFFFFFFFFFFFFFFFFFFFF6D
:1003A000FFFFFFFFFFFFFFFFFFFFFFFFFFFFFFFF5D
:1003B000FFFFFFFFFFFFFFFFFFFFFFFFFFFFFFFF4D
:1003C000FFFFFFFFFFFFFFFFFFFFFFFFFFFFFFFF3D
:1003D000FFFFFFFFFFFFFFFFFFFFFFFFFFFFFFFF2D
:1003E000FFFFFFFFFFFFFFFFFFFFFFFFFFFFFFFF1D
:1003F000FFFFFFFFFFFFFFFFFFFFFFFFFFFFFFFF0D
:10040000FFFFFFFFFFFFFFFFFFFFFFFFDEF9FFFF23
:1004100010B5054C237833B9044B13B10448AFF33E
:1004200000800123237010BD58D9FF1F0000000079
:1004300084C8020008B5064B1BB106480649AFF355
:1004400000800648036813B1054B03B1984708BD07
:100450000000000084C802005CD9FF1F54D9FF1FB0
:1004600000000000074B08481B6808491A6830B4B0
:10047000074C01252570146910611B790B7030BC85
:10048000704700BF74D9FF1F0080FF1F1F8000400E
:1004900078D9FF1F10B5002104464FF0FF321E48E7
:1004A00018F03CF81C4810214FF0FF3218F040F8CB
:1004B000194804214FF0FF3218F044F81648032180
:1004C0004FF0FF3218F048F804214FF0FF32124885
:1004D00018F04CF8114B124A1C600021A2F11003D5
:1004E00043F8041B9342FBD10E4A0021A2F11003F2
:1004F00043F8041B9342FBD10B4A0021A2F12003D5
:1005000023F8021B9342FBD103484FF0FF31BDE8B3
:10051000104018F035B800BF90D9FF1FF4DAFF1F64
:1005200090D9FF1F08DBFF1F2080FF1F2DE9F04738
:10053000DFF8A891634DD9F80000634F012118F04E
:100540006DFCD9F8002061491368DFF894E1186860
:10055000196001269E71DE7110685D4900244FF01C
:1005600002081C715C7144728472C47280F8088045
:1005700013684FF0100C18691D61D88BA3F81EC0CA
:1005800010681C734FF0FF356FF01F0A5C739C738B
:10059000DC735C7583F818A083F81480B0F816A09B
:1005A0005D769D76DD76A0F816C0137903F1804361
:1005B00003F50433A8221C701A70D9F8002038689B
:1005C0001368B3F81CC0B3F81CA01FFA8CFC4CF0E5
:1005D000080CA3F81CC0B3F81CC0B3F81CA01FFA89
:1005E0008CFC4CEA080CA3F81CC01279531103FAD6
:1005F00008F303F1604302F1100C03F5614302F0CC
:100600001F0206FA02F241F82CE031461A6018F097
:1006100005FC3A68DFF8CCC01168D9F800008E718B
:10062000CE7113680E68C1F800C004264C7181F8C1
:100630000480D98BDE8311685D736FF0070C9D73A6
:10064000DD7383F80CC0CB8ACE821368214E5C72B6
:100650009C72DC7283F8088001681568D3F810C0BA
:100660001C765C769C76DC761E612C756C75CD8B69
:100670001379CC8B184CADB225F4F05503F00F0371
:100680006FEA45455B0263EA55439BB2CB8303683F
:10069000D98BDD8A89B2D982036811799A8B9D8BB7
:1006A00092B222F4786201F00F0142F0200242EA95
:1006B00001229A83037923703B681B792370BDE87C
:1006C000F08700BF0080FF1F7CD9FF1F10B00340E0
:1006D0000082FF1F00B003401B80004074D9FF1F41
:1006E000650400004C120200884207DA044B081A25
:1006F0001B684FF4400191FBF0F11981704700BF76
:10070000F4DAFF1F08B5074817F0DAFE082018F0E2
:10071000EDFC054B1860082018F0E8FC034B18604E
:1007200008BD00BF90D9FF1F74D9FF1F7CD9FF1FE0
:1007300030B400EB4004E400094A0A4900EB8005AC
:10074000002300EB4500A35401EB40001444E218E1
:10075000C15A51800233162BF9D130BC704700BF0B
:1007600064DBFF1F4418002008B500F037FB007859
:1007700008BD00BF032810B5044606D800EB4002B0
:10078000D2000C4BD15CFF2900D010BD0121D15407
:1007900000F024FB084B04EB84021B6804EB4204CA
:1007A00003EB44040023C2185288E2520233162B92
:1007B000F9D110BD64DBFF1F60DBFF1F032810B4FD
:1007C0001AD8114B114C1B6800EB800100EB410162
:1007D00049000C4419440023E25ACA520233162B32
:1007E000FAD100EB4000C000094BC25CFF2A06D0E2
:1007F000012A04D00022C2545DF8044B7047FF2246
:10080000C2545DF8044B704760DBFF1F44180020A2
:1008100064DBFF1F032810B40BD8074B00EB40002C
:10082000C000C41804EB41040A29628004BFFF22FF
:10083000C2545DF8044B704764DBFF1F08B500200D
:10084000FFF776FF0120FFF773FF0220FFF770FF2D
:100850000320BDE80840FFF76BBF00BF10B50024C0
:10086000204600F0BBFA0378E0B22BB9FFF760FF37
:100870000134042CF4D110BDFF2BF9D1E0B2FFF705
:1008800079FFF5E7014B185C704700BF08DBFF1FDD
:1008900003299CBF014B5854704700BF08DBFF1F62
:1008A000054B10B4010C040A020E5C7018709970AC
:1008B000DA705DF8044B704708DBFF1F10B40023AB
:1008C000064C1846E15CDA00013301FA02F2042B0F
:1008D00040EA0200F6D15DF8044B704708DBFF1FC9
:1008E00070B42B4C2378C0F57F40FF301904002BE7
:1008F0003AD041F00043274A43F010035363D36AD0
:1009000003F47043B3F5405FF9D8D1B180B240F041
:100910008050204A01435163D36A03F47043B3F516
:10092000405FF9D81B49CB6A1A4A13F0F00FFAD08E
:10093000936BD36A174913F0F00FFAD08B6B70BC2E
:100940007047154C134B226880B240F0C0504FF0F6
:1009500080551170DD621A465863D36ADB00FCD5FE
:10096000236801221A70DDE70B4A0A4B12684FF028
:10097000805610251170DE621A465D63D36A03F457
:100980007043B3F5405FF9D821780904BDE700BF93
:100990005C27002000C002405827002070B42B4C78
:1009A0002378C0F57F40FF301904002B3AD041F086
:1009B0000043274A43F012035363D36A03F470439E
:1009C000B3F5405FF9D8D1B180B240F08050204AF1
:1009D00001435163D36A03F47043B3F5405FF9D820
:1009E0001B49CB6A1A4A13F0F00FFAD0936BD36A03
:1009F000174913F0F00FFAD08B6B70BC7047154C91
:100A0000134B226880B240F0C0504FF080551170F7
:100A1000DD621A465863D36ADB00FCD523680122E5
:100A20001A70DDE70B4A0A4B12684FF08056122508
:100A30001170DE621A465D63D36A03F47043B3F546
:100A4000405FF9D821780904BDE700BF5C2700208A
:100A500000C002405827002070B42B4C2378C0F50A
:100A60007F40FF301904002B3AD041F00043274A61
:100A700043F014035363D36A03F47043B3F5405F48
:100A8000F9D8D1B180B240F08050204A014351637F
:100A9000D36A03F47043B3F5405FF9D81B49CB6ABE
:100AA0001A4A13F0F00FFAD0936BD36A174913F078
:100AB000F00FFAD08B6B70BC7047154C134B22684B
:100AC00080B240F0C0504FF080551170DD621A4680
:100AD0005863D36ADB00FCD5236801221A70DDE776
:100AE0000B4A0A4B12684FF0805614251170DE62D3
:100AF0001A465D63D36A03F47043B3F5405FF9D8D7
:100B000021780904BDE700BF5C27002000C0024037
:100B10005827002070B42B4C2378C0F57F40FF305D
:100B20001904002B3AD041F00043274A43F0160342
:100B30005363D36A03F47043B3F5405FF9D8D1B17E
:100B400080B240F08050204A01435163D36A03F4DD
:100B50007043B3F5405FF9D81B49CB6A1A4A13F0CA
:100B6000F00FFAD0936BD36A174913F0F00FFAD055
:100B70008B6B70BC7047154C134B226880B240F0F1
:100B8000C0504FF080551170DD621A465863D36A29
:100B9000DB00FCD5236801221A70DDE70B4A0A4B03
:100BA00012684FF0805616251170DE621A465D639A
:100BB000D36A03F47043B3F5405FF9D82178090490
:100BC000BDE700BF5C27002000C00240582700207E
:100BD000494B4A4A596D2DE9F047494C1E6D20603A
:100BE000012500244FF4A07086F8805214705470D0
:100BF0009470D47008600F68DA6C9B6C414EDFF81B
:100C0000389127F020070F6083F880521060136836
:100C10003D4F23F0200313602946092018F02AF8DD
:100C200021464022394834601CF094FD384A394B43
:100C30001168DFF808E13848384C41F4805A4FF029
:100C400038484FF400714FF0784CC2F800A0C3F858
:100C50000090C3F80C80C3F810C0CEF800103D70AF
:100C60001C600378D8075BBF02F53F521C322C4A48
:100C70004FF4107111609A0754BF2A4A2A4A4FF460
:100C800000715B07116032D4284B4FF410721A6068
:100C9000274C4FF6FF7383F31003184623606360FD
:100CA000A360E360FFF71CFE6068FFF777FEA068B3
:100CB000FFF7D2FEE068FFF72DFF94E802103368DB
:100CC000124AA56822F81310E06803F1080703F13F
:100CD000100403F11801013303F0070322F817C0D1
:100CE000336022F8145022F81100BDE8F087114B50
:100CF0004FF400721A60CBE778C2020008DBFF1FD6
:100D000060DBFF1F4CDBFF1F5C2700200CDBFF1F9D
:100D10003C80044000C0024054270020000C1F808B
:100D200008C004401CB004400CC0044014B004408F
:100D300050DBFF1F04C0044001401F8010B004407E
:100D40001549164B164870B40E68164D164C4FF4E4
:100D5000107246F480560E602A60226018601A688D
:100D600042F440621A601A6851040DD442F4804182
:100D70004FF0384441F001014FF078401960DC60D9
:100D8000186170BC1A6070474FF038414FF07842DC
:100D9000D96070BC1A6170473C80044000C00240BA
:100DA00000001F8018B0044014B0044017F07ABD52
:100DB000F0B4084F0026084C0FCCBD19B85169603B
:100DC00003CC1836602EAA60EB6028616961F2D10D
:100DD000F0BC704764DBFF1F54120200024B00EBB3
:100DE000400003EBC000704764DBFF1F074B084A5D
:100DF000187910B41C680023D118D4500533A02BE7
:100E00000871F9D15DF8044B704700BFA0120200D1
:100E1000C4DBFF1F00EBC101C9B203481F299CBFFF
:100E200001EB810140187047C4DBFF1FF0B5264C71
:100E30002649274D83B04FF47A73022600930C277E
:100E4000204678223C23A760666016F045FF2149C2
:100E500066601623A3600B68A3FB05234A68A2FB08
:100E600005028968A1FB05171B480097642101FB57
:100E700003F1A0FB0171490901912046174916F0C1
:100E80002BFF174966602023A3604A68A2FB053246
:100E90000B68A3FB05038968A1FB0550114900906D
:100EA000204616F019FF104A104B12681B681049B3
:100EB00066602A252046A56016F00EFF3423666082
:100EC000A36003B0F0BD00BFF8260020B0120200FE
:100ED0002222220284DCFF1F89888888C012020037
:100EE00074DCFF1FD812020070DCFF1F80DCFF1FC4
:100EF000E81202002DE9F041DFF8AC80234F244EC8
:100F0000D8F80030234C18883A6833682249022503
:100F1000A0EB12224FF00C0E20461B0AC4F808E08A
:100F2000656016F0D9FED8F800307A685888736882
:100F30001A4965604FF0160EA0EB12221B0A2046DC
:100F4000C4F808E016F0C8FED8F80030BA689888EF
:100F5000B368134965604FF0200EA0EB12221B0A04
:100F60002046C4F808E016F0B7FED8F80030FA685A
:100F7000D888F36865602A25A0EB1222A560204678
:100F800008491B0ABDE8F04116F0A6BEF8DAFF1FBB
:100F900080D9FF1FF8260020F81202000413020077
:100FA000101302001C130200F4DAFF1F30B5144CBA
:100FB00083B000214023204600930A46802316F088
:100FC000E5FB00220C2320460E496260A36016F068
:100FD00051FE0D480D494268022516236560A36045
:100FE000A2FB01320368A3FB01538068A0FB011040
:100FF00007490090204616F06FFE03B030BD00BFD9
:10100000F82600202813020064DCFF1F222222029F
:101010002C1302001648174B174AD3F8C410F0B42B
:101020000468164F164E44F0807404601068012462
:1010300040EA04051560D3F8C0204FF4A07082F890
:10104000804208600D68D3F8CC20D3F8C83025F072
:1010500020050D6083F8804210601068202120F088
:1010600020004FF40023106039603360F0BC7047FB
:10107000FCED00E078C20200001000E008F00F4034
:1010800048F00F402DE9F043374FDFF8E88083B098
:1010900004463D464646D8F80828D8F80C38D31AF6
:1010A000022B2AD0D6F8083803F0010303F50073A9
:1010B00056F8231009B3DFF8C0900122484616F015
:1010C00057F9EA1BD2104FF0020E013203234846B3
:1010D0002649C9F804E0C9F808E016F0FDFD4846C5
:1010E000296816F0C7FD6B689847484616F04EF918
:1010F000D6F808380133C6F80838002004F160013A
:10110000D4F8E020D4F8E4309A4219D0D4F8E4308E
:1011100003F00F0201EBC20201335288C4F8E4303D
:10112000082A1DD0042AEBD1AB68DBB1EB68CBB148
:10113000D4F8E020D4F8E4309A4205F10805E5D16E
:101140000028A8D000230A4AC4F8E430C4F8E030EC
:1011500013680193019BC4F8EC3003B0BDE8F08341
:101160000120CDE7004DCBE76013020040130200E1
:1011700048270020E81E0020F826002010B4094867
:10118000094C0A4A00234FF0FF312360A3606160DD
:101190000360416083605160136093605DF8044BAD
:1011A000704700BF74DCFF1F84DCFF1F64DCFF1F7F
:1011B0002DE9F041154C164E04F120054FF00008C2
:1011C00040F2031723786168212B18464FF0020282
:1011D00004F108040FD917F0B9FCAC42F2D10D4B61
:1011E0000D4A00211960A2F1100343F8041B934239
:1011F000FBD1BDE8F08106EBC30C56F833E0DCF818
:1012000004308EF880821F60E5E700BF8013020083
:1012100078C2020090DCFF1FA4DCFF1F084B0949C5
:101220009869DA6910B4002480F8804240F2031310
:101230001360032002225DF8044B17F087BC00BF47
:1012400078C202003585FF1F104B196810B411B128
:1012500000221A60012158680C4A10B10020506029
:1012600002209A68094C014312B10022A2600422B4
:10127000DB6806480A4313B10023C3600823044C0B
:10128000134323605DF8044B704700BF94DCFF1FDD
:1012900090DCFF1F00230F22012180F82320017022
:1012A000437080F8223043628362821ED901023289
:1012B0000133102B5180F9D1704700BF70B4141C5A
:1012C00018BF0124047074B132F8136000231A4669
:1012D000C51802339419202B6A80A2B2F8D10123D9
:1012E00080F82310437070BC704700BFF0B40678DC
:1012F000002E6AD04378002B70D0841D0D250FB2CC
:10130000002D11DD6A1004EB420634F91230BB42A5
:1013100005DC5DE034F91350BD425BDD1A46531025
:1013200004EB4306002AF5D100F1020CCCEB040CCF
:101330004FEA6C0CACF102039BB20FFA8CFC1AB2B0
:10134000944556DB4FF6FF764FF4007400EB4202F3
:1013500027B2B2F902504D1B002DB8BF6D42ADB29D
:101360002AB2BA4203F10102B8BF1E4693B21AB2C2
:10137000B8BF2C469445E9DA36B23346741E721C67
:1013800000EB430300EB42025B88B2F9021000EB72
:1013900044041AB2658801EBC1010727C2EBC202FF
:1013A000092413FB071315FB04221B111211002E35
:1013B000836242621BDB90F923309E42A8BF1E4627
:1013C000F6B2002380F82260437070B2F0BC704720
:1013D00013462A46D31A5D1EB41C91E7436A8B421A
:1013E0008BDC836A994288DC90F82260EDE7002666
:1013F000E7E74FF0FF331E4600226FF00104BFE71E
:101400002DE9F84F26A7D7E90067DFF8A8A0DFF895
:10141000A8B0254D4FF00A094FF000084FF0FF34F7
:1014200014E01BF0BDFB21491BF00EFC1AF078FF05
:1014300004460D4619F096FA06460F462046294600
:1014400019F0CAFA09F1010904460D460022184BA9
:10145000304639461AF0B8FF1BF098FA1BF0BAFD77
:101460000022134B4AF80800294620461AF0ACFF28
:101470001BF08CFA1BF0AEFD8BFB09234FEAE972DF
:10148000C2EB63030AEB080208F1080803EB43030D
:10149000B8F1600F5060A9EB8300C2D1BDE8F88FAE
:1014A000ADB161B9C59B493EFFFFEFBF920A063F50
:1014B00000003C40A4DCFF1FABAAAA2AAFF30080C7
:1014C0007A4A137870B4032B40D8DFE803F0B77C76
:1014D00041027749774B0D687748013505F00705DC
:1014E00005F1180103EB4101C5F10703013B31F898
:1014F000024B20F8024F5E1CF8D1704BC5F108007A
:1015000003EB40006B1E3DB16D4931F8024F20F8EE
:10151000024B013B5C1CF8D16A4D6B4C2E68A4F168
:101520001003002133F8020FA3420144FAD1674BA4
:1015300006F1C00081F4F821C1F38431013623F8AB
:10154000101006F03F0600232E60137070BC704729
:101550005749584B0D685848013505F0070505F106
:10156000100103EB4101C5F10703013B31F8024BC8
:1015700020F8024F5E1CF8D1504BC5F1080003EB78
:1015800040006B1E3DB1524931F8024F20F8024B2A
:10159000013B5C1CF8D14B4B4B4C1D680021A4F166
:1015A000100333F8020FA3420144FAD105F180047D
:1015B00081F4F8214548C1F38431032320F8141045
:1015C000137070BC70473A493A4B0D683A48013580
:1015D00005F0070505F1080103EB4101C5F107031B
:1015E000013B31F8024B20F8024F5E1CF8D1334B1F
:1015F000C5F1080003EB40006B1E3DB1354931F8E1
:10160000024F20F8024B013B5C1CF8D12D4B2E4CB5
:101610001D680021A4F1100333F8020FA342014416
:10162000FAD105F1400481F4F8212848C1F384314E
:10163000022320F81410137070BC70471C4B1D4916
:101640001D681D48013505F0070501EB4501C5F191
:101650000703013B31F8024B20F8024F5E1CF8D122
:10166000164BC5F1080003EB40006B1E3DB11A4953
:1016700031F8024F20F8024B013B5C1CF8D1114BB2
:10168000114C1D680021A4F1100333F8020FA3428E
:101690000144FAD181F4F8210C48C1F384310123CB
:1016A00020F81510137070BC704700BF14DFFF1FC7
:1016B0004CDBFF1F0CDBFF1F02DFFF1F04DFFF1FE0
:1016C0003ADBFF1F18DFFF1F12DFFF1F04DDFF1FC4
:1016D0002ADBFF1F1ADBFF1F0ADBFF1F2DE9F84380
:1016E000FFF7EEFEDFF8B8802B4C2C4800230121D9
:1016F000D8F80020066801321A4402F03F0202F1D5
:10170000400C34F81270FD1003EBC51507F0070705
:1017100016F8059001FA07F749EA0707775534F8F4
:101720001CC0066803F140074FEAEC0507EBC5153E
:101730000CF0070C16F8059001FA0CFC49EA0C0CA9
:1017400006F805C002F18005066834F815C00CF1F2
:10175000200C4FEAEC0503EBC5150CF0070C16F84E
:10176000059001FA0CFC49EA0C0C06F805C0C032E1
:10177000056834F812602036F21007EBC21206F04A
:101780000706AF5C01FA06F601333E433F2BAE5429
:10179000AED1BDE8F88300BF04DDFF1FF8260020AE
:1017A00018DFFF1FF0B4084F0026084D0FCDBC19FD
:1017B0000FC40FCD0FC495E803002836A02E84E88F
:1017C0000300F2D1F0BC704764E0FF1F4814020030
:1017D0000328D2BF034B044B043800EB800003EB1B
:1017E000C000704764E0FF1F20140200704700BF74
:1017F0002DE9F0412F4B304E1B6882B0002146F29C
:10180000A812019380E80600019BC0F8EC30044662
:10181000054606F11008FF2756F8040FC0B2A8606D
:10182000022117F02DFA46452F7305F10805F3D173
:1018300004F1280304F13801002243F8042B9942F3
:101840004FF00005F9D12587658784F83C5084F86E
:101850003D5010200221FF2617F012FA0F2002211E
:1018600017F00EFA84F8405084F841506564A5647E
:1018700084F84D6084F84C601620022117F000FABD
:101880001520022117F0FCF9C4F8E85084F85D60D7
:10189000C4F8E45084F85C6084F8505084F85150E7
:1018A0006565A565C4F8E050C4F8EC5002B0BDE829
:1018B000F08100BF482700200436020001F0010338
:1018C000C1F3400180F8413080F85110704700BFEB
:1018D000094B82B01B6801934FF47A7202FB01F14D
:1018E000B1F5FA6F019BC0F8EC3038BF4FF4FA61E4
:1018F000416002B0704700BF4827002080F83D10CB
:10190000704700BF2DE9F043DFF8D48083B0044670
:1019100089466E460127D4F8E020D4F8E4309A4294
:1019200025D0D4F8E430658F03F00F0204EBC20237
:10193000603292E8030086E80300BDF8022001331C
:101940001542C4F8E43094F83C3021D12BBB9DF80B
:101950000000022825D003282CD0012825D0D4F857
:10196000E020D4F8E430C8F800709A42D9D11B4B7B
:10197000D4F8EC201B680093009963688A1A9A4295
:1019800024D9012384F83C30002003B0BDE8F08363
:1019900025EA02026287002BBDD0002384F83C3088
:1019A000B9E7012A0BD0082AEFD0D9F828306846C9
:1019B0009847D4E7D9F82C3068469847CFE794F891
:1019C0003D30002BCBD184F83C20C8E794F83C0094
:1019D00080F0010003B0BDE8F08300BF482700207D
:1019E00010C9FF1F2DE9F04F6F4A704D1368704EFC
:1019F00087B08A460493049B0393AB468146B9F8AB
:101A00003830694913F0040F0A68059214BF0327A0
:101A1000012703F0030213F0080F18BF0227033A4F
:101A200053425341059C8AF80030D5F80828D5F870
:101A30000C38D31A022BF8D0DBF8083803F0010376
:101A400003F500735BF823100029EED058480122FB
:101A500015F08EFC0020FEF715FF002873D05448C7
:101A600000210C22802315F00BFE4FF00208504895
:101A70005049C6F80480C6F8088016F0FBF8112318
:101A80004B484D49C6F80480B36016F0F3F8032FB5
:101A900079D047484949C0F804801D23836016F077
:101AA000E9F8022F66D09AF80030022129227160ED
:101AB000B260002B42D102227260039A3C48404936
:101AC0003523C2EB0408B36016F0D4F8B8F57A7F7A
:101AD00032D3039901F6E8331B1BC3F3141302221C
:101AE000009233483E22002115F054FCD9F8E02042
:101AF000D9F8E4309A420AD0D9F8E4300133C9F871
:101B0000E430D9F8E020D9F8E4309A42F4D12848FA
:101B100015F03CFCD5F8082840F6E733013298452B
:101B2000C5F808287FF66BAFB9F83830A9F83A3015
:101B3000384607B0BDE8F08F8023D0E71C48214924
:101B400016F098F8B7E70120FEF79CFE002886D132
:101B50000220FEF797FE002881D10320FEF792FEB7
:101B6000014600287FF47BAF11480C22802315F03A
:101B70005FFD7AE70C2300930D4839461B22802332
:101B800015F0EAFC8FE70C230093414608480F222A
:101B9000802315F0E1FC06480849C0F804801D23A5
:101BA000836016F067F87EE748270020E81E0020D3
:101BB000F8260020183602002C36020040360200BB
:101BC000683602005436020008B516F06BFE034872
:101BD0000349044ABDE808401BF07ABA04E1FF1F3C
:101BE000ED17000050B2FF1F70B4441CA14200F179
:101BF000FF35C8BFE1B205EB45152944104E56F834
:101C000021107AB14FF0FF3592FBF4F604FB162257
:101C100005FA00F021EA0000A51A20FA05F100FA01
:101C200002F21143B3FBF4F204FB1233012404FA71
:101C300003F319420CBF0020012070BC704700BFA5
:101C400074360200431C30B4994200F1FF34C8BF1F
:101C5000D9B204EB441421440B4D55F821107AB14C
:101C600092FBF3F54FF0FF3403FB152204FA00F06A
:101C70009B1A21EA000020FA03F100FA02F2114354
:101C8000084630BC704700BF7436020000230122B2
:101C90000270C0F82431C0F82831C0F82C31C0F8E7
:101CA000303100F120026FF03F03D9010133402BA6
:101CB00022F8021FF9D170472DE9F0030478002CB7
:101CC00000F09480891AD0F82C41A1F5406CA4450D
:101CD0007FDA00F128057B260FFA8CF8002E11DD43
:101CE000741005EB440735F91410414505DC6AE032
:101CF00035F91160464568DD0C46611005EB41077A
:101D0000002CF5D100F12209C9EB05094FEA690958
:101D1000A9F1020189B20FFA89F90CB2A1456BDB76
:101D20004FF6FF774FF4804500EB44040FFA85F837
:101D3000B4F92260C6EB0C06002EB8BF7642B6B2EC
:101D400034B2444501F10104B8BF0F46A1B20CB250
:101D5000B8BF3546A145E7DA39B2BEB24C1C4F1EBA
:101D600000EB410100EB4404498CB4F9225000EB34
:101D700047070CB2B7F8228005EBC5054FF00709FD
:101D8000C4EBC4044FF0090C1E4411FB095118FBAD
:101D90000C4436B209112411002EC0F83011C0F8DD
:101DA0002C4127DD7E2EA8BF7E2600EB4606B6F925
:101DB0002210C0F82411C0F82831114401F5406008
:101DC000BDE8F003704721463446611A4E1EBD1C23
:101DD00084E7D0F830118C453FF77BAFD0F828115D
:101DE00099427FF476AFD0F82411E6E70846BDE8C3
:101DF000F00370470126D8E74FF6FF7600246FF016
:101E000001074FF0FF31ABE710B4002313224FF46A
:101E1000664109240161836043808380838143613B
:101E20008377C37780F8203080F82130836580F88D
:101E30005430C0F8E4301946827642760276048047
:101E400000F1220200F12A0322F8021B9342FBD187
:101E500000F13201002223F8022B9942FBD100F15C
:101E6000340300F14404002143F8041B9C424FF06A
:101E70000002F9D1C0F8F020C0F8E020C0F8DC2062
:101E800000F15C03DC3043F8042B9842FBD15DF891
:101E9000044B7047444B454A10B483FB0043034452
:101EA000C417C4EB233302FB030044110B2907D8EA
:101EB000DFE801F0172029323B444D565F06716878
:101EC0003B4A611C52F8211052F82420891A00F074
:101ED0001F0000FB01F002EB501098405DF8044B2E
:101EE0007047334A611C52F8211052F82420C90A65
:101EF000D20AEBE72E4A611C52F8211052F8242036
:101F0000490A520AE2E72A4A611C52F8211052F8A3
:101F10002420C909D209D9E7254A611C52F82110A9
:101F200052F8242089099209D0E7214A611C52F80D
:101F3000211052F8242049095209C7E71C4A611CA4
:101F400052F8211052F8242009091209BEE7184A54
:101F5000611C52F8211052F82420C908D208B5E7B4
:101F6000134A611C52F8211052F824208908920863
:101F7000ACE70F4A611C52F8211052F8242049089E
:101F80005208A3E70A4A611C52F8211052F8242093
:101F9000890092009AE7064A611C52F8211052F813
:101FA00024204900520091E7D1000DD050ECFFFFF2
:101FB000205902002DE9F04F0446806D8FB00130AA
:101FC0009DF86090A06523B194F85430002B40F048
:101FD0007E8122B994F82130002B00F0078104F1B2
:101FE000340304F14400002143F8041B98424FF0ED
:101FF0000002F9D1616B84F82120B4F80CA0CDF86F
:1020000028A0226907920A9AB4F814A0CDF820A05B
:1020100012B20692DDF818A094F81B8094F82030D4
:1020200094F81CC0677FA67FE07F65884FF00009A9
:10203000CDF83090CAF1000A8DF83180B4F80480F0
:10204000CDF834904A468DF83730CDF82CA0CDF835
:102050001090CDF80C90CDF824808DF832C08DF81A
:1020600033708DF835608DF83600A3462346069F01
:10207000561C06F00300002F04EB400040F3A6803E
:10208000408CDDF8288010FB0811AF4F4FEA253C4B
:102090000CEB0C2C080EBC440CF20118471C1CF86D
:1020A00000901CF807A018F800C018F80780CDF8B9
:1020B000148021F07F414FEA0C28C9EB0A0A01FB8A
:1020C0000AFACDF80480CDF808A0DDF81480DDF818
:1020D00004A0CCEB080C4FEA0929AAF50048DDF86A
:1020E00008A0CDF814C0A9F500490CFB01FC09EBD0
:1020F0002A4908EB2C481FFA89F90FFA88F80FFAD9
:1021000089FC4FEA051ACCEB080C1FFA8AFA0AFB85
:102110000CFC09EB2C491FFA89F9DFF834821FFA0D
:1021200089FCA3F82AC018F8000018F807700FFA05
:102130008CFC3F1A000207FB01F72244A0F5004087
:102140000CF5004C039900EB27474FEA2C2C5F84D9
:10215000A9F5004882F848C0A9B3B4F92A2002F5CD
:1021600000420A418A4088EA02091FFA89F9B3F855
:102170004A10049A079FDDF82480DDF820A0C1F5FD
:102180007F41FF3102FB01F10912C1F57F41FF31AF
:1021900001FB09F1090C07FB01F145440AEB214160
:1021A000042EA3F84C103246ADB20BF1040B03F130
:1021B000020318D00DA80CAFDBF83410BF5D865DAC
:1021C0000397049653E789F40049D0E7D01C00F048
:1021D000030004EB4000DDF82CA0B0F92200561CEF
:1021E0000AFB001151E70FB0BDE8F08F94F85430AE
:1021F000002B40F0848008462188FFF74BFE606486
:10220000B9F1FF0F0BD0B9F1020F95BFC9F1030966
:10221000A9F1020920FA09F000FA09F06064267EAB
:10222000636B94F819C0A77EDFF828818DF83560BC
:10223000314603441322132963638DF834208DF84B
:1022400036C08DF8377023464FF0000214D058F88E
:102250002110A0FB01919D6B4FEA196949EA012108
:1022600001320D44032A9D6303F104030CD00DA930
:10227000114449781329EAD1996B01320144032AA8
:10228000996303F10403F2D1A368002B3BDBDB036A
:10229000132EC4F8EC3052D0A06BD4F8F020616B50
:1022A000821A1A44A263BCF1130F44D0E06BD4F835
:1022B000F020821A1A44E263132F37D0206CD4F82E
:1022C000F020821A1A442264C4F8F03095E61F4BBD
:1022D000984211D8A6283FD8D4F8E43003EB430540
:1022E00028448008984207D04FF0FF33B3FBF0F347
:1022F000C4F8E400C4F8E8300023A36569E6D4F824
:10230000E80060647CE7000C03FB00F529462346E7
:102310000022986B0432401A0C2A9863294403F176
:102320000403F6D1D4F8EC30616BCDE703EB430244
:102330000A442264C8E701EB4302E263BCE7616B35
:102340005A18A263AFE700BF0C470200D70802008B
:102350001D58020070460200D4F8DC300493049F3C
:10236000059004EB8303002507F1400B07F12008DB
:102370000395D865AA4601275FFA87FC5B460026CD
:10238000DD1B03F01F0005F01F0504EB850504EBC2
:102390008000ED6DC06D451B002DB8BF6D42B5EBE3
:1023A000101F38BF013603F1FF3338BFF6B2434583
:1023B000E6D1B24507F101079CBFCDF80CC0B2468B
:1023C000082FD9D1049BDDF80C800598D4F8E06083
:1023D0005D1C05F01F05C8EB050707F01F07C4F8D3
:1023E000DC5004EB8705861BED6DD4F8E430C4F8AF
:1023F000E050002EB8BF7642B6EB101F38BF28461B
:1024000070E700BF2DE9F00F4FF07F48B8FBF3F8FD
:10241000581EC3B30B131D4C03EB03231F194FEAC4
:1024200001191FFA89F907F2011C0023190E4C1C2F
:102430007E5C17F804B01CF801501CF804A0C6EB31
:102440000B0123F07F443602A6F50046C5EB0A0ACD
:1024500004FB01F12D0206EB2141A5F500450AFB25
:1024600004F489B205EB24440EB224B2A41B09FB88
:1024700004F4A1F5004101EB2441013822F8021BCC
:10248000411C4344D2D1BDE8F00F70470C47020015
:10249000014B186840007047A4F0FF1F704700BF51
:1024A000014B1868704700BF040E0020704700BF42
:1024B000014B186880007047D4050020704700BFAA
:1024C000704700BF30B4104D104C00236C22C5F88B
:1024D000C02185F8B831C5F8BC31C5F8C431C5F89C
:1024E000C8312A1F40F63820E15842F8041F18333B
:1024F0008342F9D10023012285F8E021C5F8D031CB
:10250000C5F8D43130BC704760160020C85C0200AA
:10251000014B1868704700BF38E7FF1F704700BFC6
:10252000704700BF014B1868704700BFE4000020EF
:10253000704700BF012802D1014B00221A71704779
:10254000BC050020014B18688000704740FDFF1F4C
:10255000704700BF2DE9F00F304C314D4FF0000CAB
:10256000834604F5E96966460BEB0C0800222D4B07
:10257000A4F8E060414610461F7D062F0FD8DFE823
:1025800007F038232304042E2E0018B101F8010BA4
:10259000A4F8E060A75821F8027BB4F8E0001833F3
:1025A000AB4202F10402E7D118B101F8010BA4F823
:1025B000E06004F56974C8EB01014C458C44D3D14B
:1025C0006046BDE8F00F704718B101F8010BA4F8A0
:1025D000E060A75801F8017BB4F8E000DFE718B12C
:1025E00001F8010BA4F8E060A75841F8047B002033
:1025F000D5E7A75848B107F00F0747EA000A01F8E6
:1026000001AB0020A4F8E060C9E74FEA071A5FFABF
:102610008AFA4AF47040A4F8E000C0E75CE9FF1FC2
:1026200054C0FF1F14BBFF1F2DE9F001294B2A4E98
:102630000021A6F87C100D468C46044603F53A7737
:102640001A7D062A0FD8DFE802F0321D1D04042887
:1026500028001DB104F8015BA6F87CC0725824F86C
:10266000022BB6F87C501833BB4201F10401E7D1CC
:1026700025B1002304F8015BA6F87C30201ABDE8E0
:10268000F00170471DB104F8015BA6F87CC07258D8
:1026900004F8012BB6F87C50E5E71DB104F8015BA6
:1026A000A6F87CC0725844F8042B0025DBE772586A
:1026B00045B102F00F02154304F8015B0025A6F8AE
:1026C0007CC0D0E71501EDB245F47045A6F87C500A
:1026D000C9E700BFFCC4FF1F70FAFF1F2DE9F00F10
:1026E000304C314D4FF0000C834604F500696646CE
:1026F0000BEB0C0800222D4BA4F8846041461046D9
:102700001F7D062F0FD8DFE807F038232304042E9F
:102710002E0018B101F8010BA4F88460A75821F825
:10272000027BB4F884001833AB4202F10402E7D113
:1027300018B101F8010BA4F8846004F50074C8EB2B
:1027400001014C458C44D3D16046BDE8F00F704781
:1027500018B101F8010BA4F88460A75801F8017BB7
:10276000B4F88400DFE718B101F8010BA4F8846025
:10277000A75841F8047B0020D5E7A75848B107F0D7
:102780000F0747EA000A01F801AB0020A4F88460B3
:10279000C9E74FEA071A5FFA8AFA4AF47040A4F8C8
:1027A0008400C0E7D8F0FF1F9C700200846D020017
:1027B0002DE9F001294B2A4E0021A6F8B4110D464F
:1027C0008C46044603F638271A7D062A0FD8DFE820
:1027D00002F0321D1D04042828001DB104F8015B1D
:1027E000A6F8B4C1725824F8022BB6F8B4511833C5
:1027F000BB4201F10401E7D125B1002304F8015BDC
:10280000A6F8B431201ABDE8F00170471DB104F8F4
:10281000015BA6F8B4C1725804F8012BB6F8B451A4
:10282000E5E71DB104F8015BA6F8B4C1725844F89D
:10283000042B0025DBE7725845B102F00F02154367
:1028400004F8015B0025A6F8B4C1D0E71501EDB28C
:1028500045F47045A6F8B451C9E700BFC85C020052
:10286000601600202DE9F001294B2A4E0022A6F81F
:10287000542015469446044603F5FC77197D062935
:102880000FD8DFE801F0321D1D04042828001DB117
:1028900004F8015BA6F854C0B15824F8021BB6F83E
:1028A00054501833BB4202F10402E7D125B1002392
:1028B00004F8015BA6F85430201ABDE8F001704717
:1028C0001DB104F8015BA6F854C0B15804F8011B0F
:1028D000B6F85450E5E71DB104F8015BA6F854C002
:1028E000B15844F8041B0025DBE7B15845B101F0AD
:1028F0000F010D4304F8015B0025A6F854C0D0E792
:102900000D01EDB245F47045A6F85450C9E700BF7B
:1029100034930200A40C00202DE9F00F434E444DE7
:1029200082B04FF0000C0190344606F57079DDF866
:102930000480404B4FF00000E044002220854146D7
:10294000104693F814B0BBF1060F10D8DFE80BF077
:102950004E5E433A2F27040028B14FF0000A01F8D9
:10296000010BA6F828A0A75841F8047B00201833D3
:10297000AB4202F10402E4D120B101F8010B4FF0A7
:1029800000003085F034C8EB01014C458C4406F161
:10299000F006CCD1604602B0BDE8F00F70470028C9
:1029A000E1D04FF0000701F8010B3785DBE720B1DC
:1029B00001F8010B4FF000003085A75821F8027B89
:1029C000208DD4E70028F8D04FF0000A01F8010B61
:1029D000A6F828A0F1E720B14FF0000701F8010B9D
:1029E0003785A75801F8017B208DC0E7A758A8B10B
:1029F00007F00F0B4BEA000B4FF0000AA4F828B0C9
:102A0000002001F801BBA6F828A0B0E70028E8D014
:102A100001F8010B4FF000003085E2E74FEA071A9A
:102A20005FFA8AFA4AF470402085A0E7881A0020ED
:102A3000B89B0200C89A0200704700BF704700BFF1
:102A4000704700BF704700BF704700BF704700BFAE
:102A5000704700BF704700BF704700BF704700BF9E
:102A6000704700BF704700BF704700BF704700BF8E
:102A7000704700BF704700BF704700BF704700BF7E
:102A8000704700BF704700BF704700BF2DE9F84393
:102A90004FF00008534C544F002645465FFA88F02B
:102AA000221F0023F95842F8041F1833F02BF9D1E4
:102AB000FF23A4F8A030E5622563656384F83850ED
:102AC00084F8395084F8AA00E5632664C4F8886065
:102AD000C4F89050C4F8945084F88E50C4F89850BC
:102AE00084F88C5084F88F5084F8A250A4F8A45035
:102AF000A4F8A65022460023E1180233162BA1F8B1
:102B0000705002F1040216644FF00001F4D1032268
:102B10004FF0010C4FF0020E0823904284F8E410AD
:102B200084F8E5C084F8E6E084F8E72084F8E8302B
:102B300049D0092384F8E93084F8EA3004F1EB0243
:102B400004F1E403D31A4FF0000904F1B800C4F80B
:102B5000AC50C4F8E03008F10108494628221AF0C8
:102B6000F9FDB8F1040FC4F8B060C4F8B4504FF0E8
:102B7000000004F1F00491D11C49D1F8D84381F848
:102B80000C900023002201F57A75C5E90023013C71
:102B9000032381F80D9081F80E9081F81490C1F80C
:102BA0001890C1F82090C1F82490C1F8F093C1F8B2
:102BB000F403C1F80090C1F80490C1F808900B61CB
:102BC000CC61BDE8F883062204200521072384F8A0
:102BD000EB2084F8E90084F8EA1084F8EC3004F182
:102BE000ED02ADE7881A0020C89A0200601A0020A2
:102BF000FEF774BD10B5044616F0ECF9204610BD82
:102C00000B4B10B401EB410403EBC4046368934223
:102C100003DCA3689A42B8BF134650F821205DF840
:102C2000044B9A4216BF40F8213000200120704723
:102C300014BBFF1F0B4B10B401EB410403EBC404A6
:102C40006368934203DCA3689A42B8BF134650F806
:102C500021205DF8044B9A4216BF40F82130002035
:102C600001207047FCC4FF1F012870B511D1094D28
:102C7000094E2B8F6B870024284621463470FEF7BF
:102C80003DFE2B8F746186F8344086F83640F4633D
:102C90006B8770BD04E1FF1FF4E1FF1F0B4B10B405
:102CA00001EB410403EBC4046368934203DCA368B3
:102CB0009A42B8BF134650F821205DF8044B9A425F
:102CC00016BF40F82130002001207047846D0200BB
:102CD0000B4B10B401EB410403EBC4046368934253
:102CE00003DCA3689A42B8BF134650F821205DF870
:102CF000044B9A4216BF40F8213000200120704753
:102D0000C85C0200F8B503280CD8DFE800F00C021C
:102D10000C0C1D4C0025257515F03CFC1B4B25604B
:102D20001A8F5A87F8BD1A49002501F570770020DF
:102D3000FF26C1F898000D64C1F8885081F88D0015
:102D400081F88E0081F8380081F83900A1F8A06080
:102D500081F8A200A1F8A400A1F8A600A1F8A8009B
:102D6000C1F89C00C86381F88F000A460023CC1884
:102D70000233162BA4F8700002F104021564F6D198
:102D8000F031B942D5D1F8BD601A002004E1FF1F2F
:102D9000881A00200B4B10B401EB410403EBC40470
:102DA0006368934203DCA3689A42B8BF134650F8A5
:102DB00021205DF8044B9A4216BF40F821300020D4
:102DC00001207047349302000378012B10B50446AC
:102DD00009D0022B06D16388022B03D1204B01229C
:102DE00083F8792010BD4388013B072BFAD801A254
:102DF00052F823F0492E0000352E0000E52D00008A
:102E0000212E0000E52D0000E52D0000E52D00003D
:102E1000152E0000134B1A7982F001021A7110BDB1
:102E20000F4B9B68002BDDD10E4A1178B1B90123FD
:102E3000137010BD0A4881680029D3D10268203A76
:102E4000FFF7A8FF2378C4E7054881680029C9D1A6
:102E500002682032FFF79EFF2378BAE7137010BD97
:102E6000A40C0020BC05002090F8263190F8E22048
:102E7000022BF0B46ED0032B67D0012B60D0D0F8BA
:102E80002CC0032B03D8DFE803F0025D676290F8E3
:102E900040703D460AB1334A12783349134401EB7E
:102EA0004316002F5BD000F5A8727C000023F15E72
:102EB00042F8041F0233A342F9D11FFA8CF100F546
:102EC000AA7600234FF6FF7441FA03F2D20758BFE7
:102ED00046F8234001339F42F6DC341F00276B1E67
:102EE0009F4219DA05F18043023B06EB830304E0BD
:102EF000BCBF59609A60A3420ED0596853F80429A8
:102F00009142F5D105F18042013AA34256F82220C0
:102F10009A6005F1FF35F0D10137BD4204F1040498
:102F2000DDDC05F18043013B4FF6FF7256F823309C
:102F3000934208BF05F1FF3580F84E51F0BC704751
:102F4000D0F830C090F84470A3E7D0F838C090F8BB
:102F50004C709EE7D0F834C090F8487099E700F5BF
:102F6000AA76DEE7A01302003CDFFF1F2DE9F00F79
:102F7000DFF83892DFF838C28CB0042109F1E90299
:102F800009F1EA0309F1EC0701914FF000080392FF
:102F9000029309F1EB0409F1E40A09F1E50109F1F1
:102FA000E60209F1E70309F1E8060B900A974846A3
:102FB0000994CDF818A00591049207934546374629
:102FC0000B9C794BA0F850504444089421460022B1
:102FD00000F1280400971E7D062E15D8DFE806F0C4
:102FE000A7BB968E7D040400D1F800B05E68A0F8FF
:102FF0005050B34503DB9E68B345B8BF5E46A75843
:10300000B74218BFA65004311833634502F10402D9
:10301000E1D1DDF818A0059B8AF828504FF0010295
:10302000DDF810A083F828204FF00204079B009FD2
:103030008AF828404FF003024FF0080483F8282054
:1030400087F8284090F8D230DDF820A0032BCAEB97
:103050000101884400F09380039CDDF808A04FF044
:10306000090384F8283000F213128AF828300399F3
:10307000099CDDF828A000F58673F031D31A03917E
:10308000029A0699C0F80831F032F0340AF1F00AD9
:10309000F03102920994059A049CCDF828A006917B
:1030A000DDF81CA00199F032F0340AF1F00A013980
:1030B00005920494CDF81CA007F1F00700F1F00090
:1030C00001917FF47DAFD9F808314046013BC9F842
:1030D0001C300CB0BDE8F00F7047A0F85050B1F8AC
:1030E00000B05E68B34503DB9E68B345B8BF5E467B
:1030F000A758B74218BFA650023185E7A0F8505034
:10310000B1F900B05E68B345F2DBEDE7A0F85050CE
:1031100091F800B05E68B34503DB9E68B345B8BF65
:103120005E46A758B74218BFA65001316CE7B0F809
:103130005060C6B106F00F0BA0F850505E68B34562
:1031400003DB9E68B345B8BF5E46A758B7423FF45D
:103150005BAFA65058E7A0F8505091F900B05E68F8
:10316000B345DEDBD9E791F800B06FEA0B5A6FEA9E
:103170001A5A0131A0F850A04FEA1B1BDEE7039C4E
:10318000DDF808A04FF0040184F828100999052300
:1031900006228AF8283081F828200A9A072382F824
:1031A000283000F2151262E7C89A0200601A002067
:1031B000B89B02004649474B00222DE9F0038446A4
:1031C000A1F8542015460E4603F5FC741F7D062F0A
:1031D00018D8DFE807F052683E3521040400D0F823
:1031E0000090D3F80480A1F85450C14504DB9F68D7
:1031F000B945B4BFC846B8468F58474518BF42F8CE
:10320000068004301833A34202F10402DED1CCEB75
:103210000000BDE8F0037047A1F85450B0F80090EA
:10322000D3F80480C14504DB9F68B945B4BFC846E4
:10323000B8468F58474518BF42F806800230E1E78C
:10324000A1F85450B0F90090D3F80480C145F0DBE8
:10325000EAE7A1F8545090F80090D3F80480C145F3
:1032600004DB9F68B945B4BFC846B8468F58474588
:1032700018BF42F806800130C4E7B1F85470DFB1DE
:1032800007F00F09A6F85450D3F80480C14504DBB9
:103290009F68B945B4BFC846B8468F584745B1D0B6
:1032A00042F80680AEE7A1F8545090F90090D3F8A8
:1032B0000480C145DADBD4E790F800906FEA095842
:1032C0006FEA18580130A6F854804FEA1919DBE765
:1032D000A40C0020349302002DE9F00F7849794CBA
:1032E0004FF0000C82B0804601F50069654608EB9E
:1032F0000C07754BA1F884503846002201971E7DBB
:10330000062E15D8DFE806F09CB08B83720404000B
:10331000D0F800B05E68A1F88450B34503DB9E6826
:10332000B345B8BF5E468F58B74218BF8E500430C1
:103330001833A34202F10402E1D1019F0B7E81F810
:10334000D851C01B4FF0050A4FF00602844481F8A3
:10335000D9A181F8DA21002B40F09A8001F2DB1329
:103360004FF00A021A7091F82820002A00F0A68077
:103370000C225A700D200E229870DA700433172632
:1033800018201E70587019261A209E70D8701B269F
:103390001C201E7158710F2610209E71D8711126A5
:1033A00012201E725872132614209E72D87215268F
:1033B00016205A1A1E7358731D261E209E73D8732A
:1033C000A2F5E3721F2620201E74587401F50071C7
:1033D00041F82C2C49458AD13C4BD3F80422604655
:1033E000013A9A6102B0BDE8F00F7047A1F884502D
:1033F000B0F800B05E68B34503DB9E68B345B8BF64
:103400005E468F58B74218BF8E50023090E7A1F841
:103410008450B0F900B05E68B345F2DBEDE7A1F887
:10342000845090F800B05E68B34503DB9E68B345F6
:10343000B8BF5E468F58B74218BF8E50013077E74D
:10344000B1F88460C6B106F00F0BA1F884505E6835
:10345000B34503DB9E68B345B8BF5E468F58B7429D
:103460003FF466AF8E5063E7A1F8845090F900B046
:103470005E68B345DEDBD9E790F800B06FEA0B5A1F
:103480006FEA1A5A0130A1F884A04FEA1B1BDEE74D
:103490004FF0070381F8DB3101F5EF734FF00A02BB
:1034A0004FF008074FF0090A81F8DC7181F8DDA1BF
:1034B0001A7091F82820002A7FF45AAF01335EE792
:1034C000D8F0FF1F9C700200846D0200A8F0FF1F5F
:1034D0004649474B00222DE9F0038446A1F8B42168
:1034E00015460E4603F638241F7D062F18D8DFE850
:1034F00007F052683E3521040400D0F80090D3F85C
:103500000480A1F8B451C14504DB9F68B945B4BF3C
:10351000C846B8468F58474518BF42F80680043061
:103520001833A34202F10402DED1CCEB0000BDE867
:10353000F0037047A1F8B451B0F80090D3F80480BC
:10354000C14504DB9F68B945B4BFC846B8468F582B
:10355000474518BF42F806800230E1E7A1F8B451B0
:10356000B0F90090D3F80480C145F0DBEAE7A1F898
:10357000B45190F80090D3F80480C14504DB9F68F3
:10358000B945B4BFC846B8468F58474518BF42F83A
:1035900006800130C4E7B1F8B471DFB107F00F095C
:1035A000A6F8B451D3F80480C14504DB9F68B9453F
:1035B000B4BFC846B8468F584745B1D042F80680D8
:1035C000AEE7A1F8B45190F90090D3F80480C1455A
:1035D000DADBD4E790F800906FEA09586FEA1858E0
:1035E0000130A6F8B4814FEA1919DBE76016002014
:1035F000C85C02004388202B30B41CD0402B01D083
:1036000030BC7047284B1A7932B31B69274A80882F
:1036100052F82310142BF3D8254C03EB430504EB8D
:10362000C50501FA80F06C68A04231DAA142E7D00A
:1036300042F82340E4E71D4B9A68002AE0D11A497A
:1036400084880978142953F82120D9D802FA84F201
:10365000184630BCFFF79EBBB0F9042018699C687F
:103660001044A04212DBD9688842A8BF08465969B5
:103670001861002A11440C4D0FDB012904DDE968B3
:103680008842ACBF032102215961B9E72046EEE729
:10369000AC68A042B8BF0446C8E70129F4DC844204
:1036A000ACBF00210121EFE7BC050020A40C0020E5
:1036B000349302002DE9F00F874B93F8E021012AA3
:1036C00084B007D012B94288402A7BD004B0BDE84C
:1036D000F00F7047D3F824C0804F814E814DB0F871
:1036E00002800CF10A02642153F8222087FB024772
:1036F000D417C4EBA74786FB0296C4EB263685FB9E
:1037000002A94FEAE77AC4EB6914CDF808A085FB5B
:10371000079B85FB06A9CDF80C9085FB04A9029DAB
:10372000CDF80490C5EB6B1A039D4FEAE67BCBEB1B
:103730006519DDF804B0E517C5EB6B1501FB142224
:1037400001FB196901FB154501FB1A7AB8F1200F3D
:10375000AAF10A01A9F10A04A5F10A07A2F10A06D1
:1037600057D0B8F1400F46D0BCF1620FA8BF4FF060
:10377000620C42F210785C4A5C485D4D0A342CEAD7
:10378000EC7C08FB04F40CF10A0C0A3102FB014149
:103790000A3764220CEB4C0802FB07120A3600EBD6
:1037A000C8003244AA42A8BF2A46416822EAE2720F
:1037B00091421BDD53F82C30474A8B4286D042F8A9
:1037C0002C1083E793F8B821002A38D0D3F8C4111D
:1037D000848853F821206C293FF678AF184602FA06
:1037E00084F204B0BDE8F00FFFF772BA81688A4234
:1037F000B8BF1146DEE780880FFA80F8B8F1000FF5
:103800004CDD93F8CD01A8B1152FADDCA5F109076A
:10381000AAE7828810B2002834DD93F8CC2122B1C7
:103820001529A1DCAAF109019EE7152C9CDCA9F160
:10383000090499E7152E97DCA2F1090694E7B0F97F
:103840000420D3F8C411D3F8BC411144A14217DBC2
:10385000D3F8C0018142B8BF0846D3F8C811C3F8F5
:10386000C401002A11441C4D24DB012905DDD5F8D3
:10387000C0118842ACBF03210221C3F8C81125E75B
:103880002046EAE7002A3FF46FAF93F8CC21C2B19B
:1038900000297FF769AFAAF10B0165E700283FF423
:1038A00063AF93F8CD0190B1002F7FF75DAFA5F125
:1038B0000B0759E70129E0DC8442ACBF002101215C
:1038C000DBE7002C7FF750AFA9F10B044CE7002E8B
:1038D000C8BFA2F10B0647E76016002083DE1B433A
:1038E000AD8BDB681F85EB5140420F00C85C0200C6
:1038F000A036ED012DE9F84F4388202B7ED0402BD8
:1039000001D0BDE8F88FC04C2378002B00F0CB80AD
:10391000237C002B00F02E816568E36904EB4525CC
:1039200030352B4493F8D8610C2E00F0D180202E36
:10393000828855F8263040F20481062E02D00A2EE5
:1039400040F0D5802B7E00200521062285F8D80185
:1039500085F8D91185F8DA21002B40F0298105F28C
:10396000DB130A221A7095F82820002A00F02E8115
:103970000C200D210E2258709970DA7004335A1BF6
:103980004FF0170B4FF0180A4FF019094FF01A08B3
:103990004FF01B0C1C270F261020112183F800B0BC
:1039A00083F801A083F8029083F8038083F804C0B1
:1039B0005F719E71D8711972A2F5E3724FF0120B0C
:1039C0004FF0130A4FF014094FF015084FF0160C82
:1039D0001D271E261F20202183F809B083F80AA086
:1039E00083F80B9083F80C8083F80DC09F73DE730F
:1039F000187459741346C5F8D4217AE0824C237C9C
:103A000013BB6368B0F90420A1687F48134483F3B3
:103A100002035A0230320029636004EB0203C0F251
:103A2000C480825C0A2A7AD8012000FA02F212F0DD
:103A3000490F40F0828040F2B670104000286ED0EE
:103A400003296FDD03226CE06368E26904EB432124
:103A500030310A4492F8D8210C2AD3D194F82C3072
:103A6000002B75D0B0F9043091F828501D44002D7A
:103A70007FF747AF08462A460A21FFF70FF960682B
:103A800004EB4020303090F82C309D42C0F2AB80E7
:103A900090F830309D42BFF634AF2A460C21BDE885
:103AA000F84FFFF7FBB86368227B5B023033E51801
:103AB0001AB3A16882880131202955F821303FF6D8
:103AC00020AF284603FA82F2BDE8F84FFFF7E6B8C8
:103AD0002B6B95F82820D9B29142B0F9042001D37C
:103AE000002A04DA31461A442846FFF7D7F8D5F8F9
:103AF000D431013BA361BDE8F88FB0F90400A1689F
:103B000041186ED4E35C0A2B12D8012202FA03F3A7
:103B100013F0490F5CD00129A8BF01210AE04FF042
:103B2000FF32A260D3F8D431013BA361BDE8F88F26
:103B30004FF0FF31A160BDE8F88F0129F2DD0246A8
:103B4000EFE703FA82F228463146FFF7A7F8F4E6DA
:103B5000CB6A91F82820DCB29442B0F9042002D953
:103B6000002ABFF6CEAE08461A440B21BDE8F84F36
:103B7000FFF794B8B0F90430E26960691A448242F0
:103B800022DBA1698A42B8BF1146226AE161002B9B
:103B90001A441D4D31DB012A04DDAA699142ACBFF4
:103BA000032202222262BDE8F88F00228260B9E778
:103BB00009230721082285F8DD3185F8DB1185F816
:103BC000DC2105F5EF73CCE60146DEE70133D6E6EE
:103BD00040F2B6721A40002AAAD00329A8BF0321D6
:103BE000A8E71146A6E70B216A1CFFF757F86368A0
:103BF00004EB432303F130004AE7012AD2DC884278
:103C0000ACBF00220122CDE7A8F0FF1F2DE9F00F85
:103C1000DFF84883C94BD8F82400D8F80020D8F83A
:103C2000101053F82230C64DD8F80460C54CDFF8A8
:103C30003093C54F96B0C6EBC6060890089A03931A
:103C4000D8F814300A9302F10A03099158F8232096
:103C5000D8F81C100C9185FB0235D117C1EBA54596
:103C6000D8F818000B9084FB02A4C1EB243489FB24
:103C700005CA89FB02B0B6004FEAE57CBB19C1EB6F
:103C80006010CCEB6A1C89FB04BABE59CDF804A0C5
:103C900089FB00BA6421CDF814A006965E68DDF8B1
:103CA0000490079601FB1C5CDE68059D02964FEAB6
:103CB000E47A1E690D964FEAE07B5E699F68049680
:103CC00001FB1022CAEB691ACBEB651BD8F8005038
:103CD000D3F81890059201FB1A4A01FB1B0B079AB7
:103CE00006990D98029E049CEB011A4419441F4446
:103CF0001E4418441C444B44AAF10A09CDF81890FC
:103D0000ABF10A09CDF81C90DDF814901092ACF1DB
:103D10000A05A9F10A09122DCDF834900F911197D7
:103D2000129613901494159340F3A381039DCCF144
:103D3000230CBCEB05090DF1580C55BF0CEB8905A4
:103D40005CF8295055F81C9CA5F5C069069D0F919B
:103D5000122D10921197129613901494159340F30C
:103D60009B81039DCAF1230ABAEB050A00F15C822C
:103D700016AD05EB8A0A5AF81CAC079D0F91122D5F
:103D800010921197129613901494159340F3BC81DE
:103D9000039DCBF1230BBBEB050B00F1A3820DF1CF
:103DA000580C0CEB8B0B5BF81CCC13900D980F91FF
:103DB00012281092119712961494159340F3B7811C
:103DC0000599039BC1F12302D21A00F1858216AD39
:103DD00005EB820252F81C0C099DE91C01EB410124
:103DE00019EB412100F1E481B1F5705F00F3D4815A
:103DF000564E574B86FB0174CA17C2EB24241B682E
:103E0000A4EB840711EB472733F814200BD00134BF
:103E100033F81410891A01FB07F186FB0196C917C4
:103E2000C1EB26210A440A9982F31002CC1C04EB50
:103E3000440448491AEB44250A6000F1B581B5F500
:103E4000705F00F39A81414EEA1786FB0574C2EB5E
:103E5000242404F10B02A4EB840715EB472533F867
:103E600012200BD00C3433F81440A41A04FB05F5CF
:103E700086FB0596ED17C5EB26252A440B9D82F39C
:103E80001002EC1C04EB44041CEB442C4A6000F1CF
:103E90008D81BCF5705F00F375812C4D4FEAEC729B
:103EA00085FB0C64C2EB242404F11602A4EB840607
:103EB0001CEB462C33F812200CD0173433F8144086
:103EC000A41A04FB0CFC85FB0C754FEAEC7CCCEBD4
:103ED000252C62440C9D82F31002EC1C04EB44047C
:103EE00010EB44208A6000F15D81B0F5705F00F353
:103EF0004E81164DC21785FB0064C2EB242404F1E9
:103F00002102A4EB840610EB462033F812200BD0DC
:103F1000223433F814309B1A03FB00F085FB007544
:103F2000C017C0EB252002440B4882F3100302683F
:103F3000CB60D60700F10F8114E000BFE0C8FF1F7F
:103F400083DE1B43AD8BDB681CC8FF1FABAAAA2A0C
:103F500060DBFF1F50DBFF1F90DCFF1F601600209F
:103F60001F85EB51D8F80C00D8F8081095070FD52D
:103F7000089E864280F23581731C622BA8BF6223A3
:103F8000D8F82440BA4D23EAE373A34218BF6B620A
:103F900054070BD56229B4BF0B466223D8F82440DE
:103FA000B34D23EAE373A34218BF6B6213070BD52B
:103FB0006228B4BF03466223D8F82420AC4C23EA1D
:103FC000E373934218BF6362AA4BAB4F1A683B6816
:103FD00016881589A6EB132305FB03F63413592C19
:103FE00040F3B780A54B83FB0493F6172344C6EB3D
:103FF000A313622BA8BF6223D8F8D0619C4C9E42C9
:1040000005D0666AC4F8D031B34218BF63625288E3
:104010007B68A2EB132303FB05F31B13592BD8BFBB
:104020000023421A00F1C8808242B8BF104641F610
:10403000786292FBF0F293FBF2F3002BC0F2BA80AD
:104040008342B8BF1846D8F8D441894A01448C420B
:104050000BD06229B4BF0B466223506AC2F8D41158
:1040600023EAE373834200D0536216B0BDE8F00F39
:1040700070470B2D35DD039DCCF11C0CBCEB050905
:104080000DF1580C57BF0CEB89055CF8299055F8D9
:104090001C5C05F5C06959E6069D0B2D0EDD039DE0
:1040A000CAF11C0ABAEB050A00F1118116AD05EB45
:1040B0008A0A5AF81C5C05F5C06A5EE6069D042D66
:1040C00040F3C880039DCAF1150ABAEB050A00F156
:1040D000208116AD05EB8A0A5AF81C5C05F5406A8A
:1040E0004BE6042D40F3A780039DCCF1150CBCEBEF
:1040F00005090DF1580C00F1FB800CEB890555F812
:104100001C5C05F5406921E6079D0B2D7ADD039DBA
:10411000CBF11C0BBBEB050B00F1D1800DF1580C62
:104120000CEB8B0B5BF81CCC0CF5C06C3DE60D9ECC
:104130000B2E43DD059F0398C7F11C02121A00F1F4
:10414000C28016AB03EB820252F81C0C00F5C06073
:1041500042E6002350E7D8F808100898444C814202
:1041600044DA431E622BA8BF622323EAE37398421A
:104170003FF4F8AE6362E068F8E60A220B3233F8E7
:1041800012207BE60A22163233F81220A2E60A2217
:10419000213233F81220C7E60A22394B1B6833F864
:1041A000122040E60022F3E70022E7E70022EAE7D8
:1041B0000022F2E7002046E7002038E70D9C042C9F
:1041C0006FDD059D039EC5F11502921B00F19580E0
:1041D0000DF1580B0BEB820252F81C0C00F54060FD
:1041E000FAE56229B4BF0B466223C9E6E068089D80
:1041F0006228B4BF0346622323EAE3739D4218BFDB
:104200006362B3E6079D042D3CDD039DCBF1150BE6
:10421000BBEB050B77D40DF1580C0CEB8B0B5BF85B
:104220001CCC0CF5406CC0E50DF1580C5CF82A5024
:10423000A5F5C06AA1E5039DCCF10E0CBCEB050908
:104240000DF1580C79D40CEB890555F81C5C05F57B
:1042500090597BE5039DCAF10E0ABAEB050A65D4B5
:1042600016AD05EB8A0A5AF81C5C05F5905A84E5F0
:1042700060160020F4DAFF1F80D9FF1FD3200DD273
:1042800060DBFF1F039DCBF10E0BBBEB050B47D48F
:104290000DF1580C0CEB8B0B5BF81CCC0CF5905C07
:1042A00083E505980399C0F10E02521A4AD416AC60
:1042B00004EB820252F81C0C00F590508CE516AD10
:1042C00055F82BC071E516A951F8220084E50DF1CF
:1042D000580C5CF82AA050E516AC54F82200A0F562
:1042E000C06079E516AD55F82BC0ACF5C06C5CE547
:1042F0005CF8295005F5C06928E516AF57F822008B
:1043000000F5C06068E516AD55F82BC00CF5C06C23
:104310004BE50DF1580C5CF82A5005F5C06A2CE508
:1043200016AD55F82BC00CF5406C3EE50DF1580C60
:104330005CF82A5005F5406A1FE55CF8295005F540
:10434000406903E516AB53F8220000F5406043E5F1
:104350002DE9F04F454E96F8E00147B2012FA1B08C
:1043600000F0818010B121B0BDE8F08FFCF78AFA2F
:10437000002800F0DA813E4800210C22802313F04F
:104380007FF93B4D3B49022328466B60AB6013F03D
:1043900071FCD6F8C43196F8B81105930691D6F899
:1043A000C8310599344ACB1A03EB430C03F1FF3AA9
:1043B0001C46033306EB8A0A079302EBCC0B0F264D
:1043C000059A5AF8048F131B5F425F41069B002F2A
:1043D00008BF0023092C049306F10C09C3DCB31CAD
:1043E0000222DBF80C102248AB606A60039313F0E2
:1043F00041FC039BDBF81020AB607E236B606AB34B
:1044000052F828101A4813F049FC049A82B93FB1B7
:104410000B230093324616480021802313F09CF8AA
:1044200007990134A1420BF1180B9CDB4E46C7E7FC
:10443000DBF80830DBF80420984500F08F810F4B43
:1044400003F1050E904508BF7346009308485A21B2
:10445000A9F10B02052313F0BFF9D8E70448414640
:1044600013F0D0FBD1E70724014D0BE060160020CC
:10447000F8260020B4710200C85C02007812020025
:1044800001370534062F2246C3484FF008014FF08C
:104490007203F5D0009413F0EFF90B2FF0D1BE4862
:1044A00028210022402313F01DF9BB4834210022AB
:1044B000402313F017F909A8B8495C2214F058F901
:1044C000D6F824A0BAF1000F40F32D810AF10902B9
:1044D000B349B44B51F82240DFF8F0B2AE484FEA8E
:1044E000E47983FB0423C9EBA3438BFB03E1DA17D5
:1044F0006427C2EB611207FB123320A901EB83038F
:104500000E2153F8842C02231A4413F01FFAA64BF1
:10451000A14883FB0423C9EB23338BFB03E1DA17A8
:10452000C2EB611207FB123320A901EB83034FF0AA
:10453000050853F8842CCDF8008043460C2113F075
:1045400025F98BFB0423C9EB63198BFB093C4FEA6C
:10455000E973C3EB6C130DF1800E07FB13930EEBA5
:1045600083038D4853F884CCCDF80CC00CF10202C3
:104570000E21022313F0EAF9DDF80CC0864803236C
:104580000CF1010200930D2112F004FF07FB194406
:1045900020A901EB8404CDF8008054F8842C7E48D7
:1045A00043460C2112F0F6FE7D4A536A0A33DFF8C7
:1045B000F4E156F82390DFF8148277484FEAE97B5C
:1045C0008EFB09E3CBEBA34388FB0321DA176427B7
:1045D000C2EB61120DF1800E07FB12330EEB830369
:1045E0002E2153F8842C02231A4413F0AFF96E499C
:1045F000694881FB0913CBEB233388FB0321DA17CE
:10460000C2EB61120DF1800E07FB12330EEB830338
:10461000052453F8842C00942C21234613F0B6F87B
:1046200088FB0913CBEB631B88FB0B324FEAEB7360
:10463000C3EB62130DF1800E07FB13B30EEB830384
:10464000554853F884CCCDF80CC00CF102022E2151
:10465000022313F07BF9DDF80CC04F4803210CF165
:1046600001020B4600912D2112F094FE07FB1B99CD
:1046700020AA02EB8909009459F8842C4648234665
:104680002C2112F087FEBAF1610F40F3A1800923BB
:10469000514674274048AB6013246F6013F076FBDB
:1046A0003D4842496F60AC6013F0E4FA336AAC6095
:1046B0007A22012B6A603A4A00F0638192F8D8317D
:1046C0003548002B64D03A4913F0D4FA96F8CC312F
:1046D0003148742127226960AA60002B4DD03549EA
:1046E00013F0C8FA2C487D212A22022313F02EF958
:1046F00096F8CD312848742131226960AA607BB3D5
:104700002D4913F0B7FA24487D213422022313F0F7
:104710001DF90323009320487C21332212F03AFE36
:1047200021B0BDE8F08F534640E70120FCF7AAF81E
:1047300000287FF420AE0220FCF7A4F800287FF4C4
:104740001AAE0320FCF79EF800287FF414AE014651
:104750000C221148802312F06BFF12E6174B74E60F
:10476000174913F087FA052300930B487B21322267
:1047700012F010FE21B0BDE8F08F124913F07AFA62
:104780000523009304487B21282212F0FFFFAFE7A6
:104790000D4913F06FFA99E7F8260020B45B020088
:1047A0006016002083DE1B43AD8BDB68947702002C
:1047B000DC7F02007834020088340200821202009A
:1047C0009034020080340200A47702001F85EB5170
:1047D000DFF8C4E16D4ADEF824306D480B334D211B
:1047E0005EF823B082FB0B234FEAEB79C9EBA343BE
:1047F00088FB032EDA17C2EB6E1207FB12330DF1A2
:10480000800E0EEB8302022352F8842C1A4413F01C
:104810009DF86049009481FB0B13C9EB233388FB9F
:104820000321DA17C2EB61120DF1800E07FB123380
:104830000EEB83034B2153F8842C5548234612F08A
:10484000A5FF88FB0B13C9EB631988FB09324FEAFC
:10485000E973C3EB62130DF1800E07FB13930EEBAC
:1048600083034B4853F884CCCDF80CC00CF1020202
:104870004D21022313F06AF8DDF80CC044480321EF
:104880000CF10102009103234C2112F083FD07FB80
:1048900019B920AA02EB8909009459F8842C3C48E4
:1048A0004B21234612F076FDBAF1610F3FF4EFAED3
:1048B000DFF8E4E0354ADEF8243035480C336C216B
:1048C0005EF8239082FB09234FEAE97BCBEBA343FD
:1048D00088FB032EDA17C2EB6E1207FB12330DF1C1
:1048E000800E0EEB8302022352F8842C1A4413F03C
:1048F0002DF82849009481FB0913CBEB233388FB67
:104900000321DA17C2EB61120DF1800E07FB12339F
:104910000EEB83036A2153F8842C1D48234612F0C2
:1049200035FF88FB0913CBEB631B88FB0B284FEA91
:10493000EB73C3EB68130DF1800E07FB13B30EEBA3
:104940008303134853F8848C6C2108F1020202237C
:1049500012F0FCFF032108F1010200910B460C4804
:104960006B2112F017FD07FB1B9720AA02EB8707AC
:10497000009457F8842C064823466A2112F00AFD59
:1049800085E60348002113F001FA9FE683DE1B430E
:10499000F8260020AD8BDB6860160020044B93F9ED
:1049A000E02112B9012283F8E021FFF7D1BC00BF5A
:1049B000601600208649874B00222DE9F0038446CB
:1049C000A1F87C2015460E4603F53A741F7D062F8C
:1049D00018D8DFE807F090A77C735F040400D0F8D4
:1049E0000090D3F80480A1F87C50C14504DB9F6897
:1049F000B945B4BFC846B8468F58474518BF42F8B6
:104A0000068004301833A34202F10402DED191F88B
:104A100094206F4BCCEB0000002A00F0A480012A08
:104A200040F095801A68042A14BF12221E2283F8CF
:104A300015228A691324062A83F81442644BDCBFCA
:104A40001A2283F81922CA694FF019064FF011058E
:104A50004FF01C04D4BF03F21A2303F21923052AD2
:104A600081F8166281F8175281F8184200F0AC8084
:104A7000594A4FF014089A1A4FF0150C16271826A9
:104A80001724551E83F8008083F801C09F70DE70E4
:104A90001C715FE0A1F87C50B0F80090D3F804805E
:104AA000C14504DB9F68B945B4BFC846B8468F58B6
:104AB000474518BF42F806800230A3E7A1F87C50B2
:104AC000B0F90090D3F80480C145F0DBEAE7A1F823
:104AD0007C5090F80090D3F80480C14504DB9F68B7
:104AE000B945B4BFC846B8468F58474518BF42F8C5
:104AF0000680013086E7B1F87C70E7B107F00F0956
:104B0000A6F87C50D3F80480C14504DB9F68B94502
:104B1000B4BFC846B8468F5847453FF473AF42F814
:104B200006806FE7A1F87C5090F90090D3F80480DC
:104B3000C145D9DBD3E790F800906FEA09586FEAD6
:104B400018580130A6F87C804FEA1919DAE70022DC
:104B50004FF0FF35214B0C689C659D60C1F8102219
:104B6000BDE8F00370471A68042A14BF01221E2210
:104B7000032483F815228A6983F814420624A2428A
:104B8000134B81F81842DCBF072283F81922CA6947
:104B90004FF002064FF01105D4BF03F21A2303F2BF
:104BA0001923052A81F8166281F8175202D10822CA
:104BB0001A700133084A4FF00A089A1A4FF00B0C8A
:104BC0000427052609245CE71B221A7001334FE7EE
:104BD00070FAFF1FFCC4FF1F7FFCFF1FF4E1FF1FE3
:104BE0002DE9F047032813D8DFE800F02514252528
:104BF0000921D1700432196D072906DC1146032002
:104C000001F8020B012050700A46521BC3F8942190
:104C1000BDE8F087634D64480024038F2C71214662
:104C2000EC624387FCF76AFE85F8684085F86A40C5
:104C3000AC64BDE8F0875B4B5C4C1B684FF469705B
:104C400000FB03F023180022D96B83F8E7200A2524
:104C500006260F2283F8995183F8986183F89A21E8
:104C600003F5CC75032903D8DFE801F03C42483650
:104C700003F29B1214211170196D072912DC0CBF6D
:104C8000172115215170196D072900F08580596D84
:104C9000052905BF192191700232033204211170D8
:104CA000013202E016215170023200210727082646
:104CB000177056709170215C042971D801A050F8CA
:104CC00021F000BF094D0000F14B0000494D0000EC
:104CD000114D0000694D00000E2283F89B2103F561
:104CE000CE72C7E70B2283F89B2103F5CE72C1E792
:104CF0000C2283F89B2103F5CE72BBE70D2283F8CB
:104D00009B2103F5CE72B5E70521D170043272E71D
:104D10004FF02D0A4FF02E094FF02F084FF0300CB6
:104D20000527312632243320342182F803A082F86B
:104D3000049082F8058082F806C0D771167254720A
:104D40009072D1720C3256E74FF02D0C2E272F2681
:104D500030240520342182F803C0177156719471F4
:104D6000D0711172093246E74FF02D094FF02E082D
:104D70004FF02F0C3027052631243220332182F8C2
:104D8000039082F8048082F805C09771D67114727E
:104D9000507291720B322EE71821917003327DE729
:104DA000033228E7F4FFFF1F04E1FF1F5CE9FF1F48
:104DB00002EB4202013B70B401EB4221042B05D807
:104DC000DFE803F040464C3A0300491011F59051DA
:104DD00030D4B1F5705F21DC234A244C82FB0136CC
:104DE00000EB8005CB17C3EB262300EB4500C5186D
:104DF0002468A3EB830311EB432134F815000BD097
:104E0000013534F81540241A04FB01F182FB01320C
:104E1000C917C1EB2221084470BC70470A2200EB7D
:104E20008001124B00EB410010441B6870BC33F84A
:104E3000100070470022F2E746F2715303FB01F1C4
:104E40008913C3E746F2CC3303FB01F1C913BDE775
:104E500045F2B51303FB01F1C913B7E742F6ED4381
:104E600003FB01F1C913B1E7ABAAAA2A60DBFF1F5C
:104E70000138C0B2022808D90B4B1868C0F30040B3
:104E8000D0F1010038BF00207047084A084B12F8E3
:104E9000202053F8323093F80002C0B2D0F1010064
:104EA00038BF0020704700BF50F00F40209A02002A
:104EB00078C202002DE9F00FBDF8205000295CD027
:104EC000002B5AD0002A58D04FF6FF749C4035EA88
:104ED000040452D0012600240670A04615F0010FEC
:104EE0004FEA550506D000EB480631F8147077807C
:104EF00008F1010801349C42F0D1002108F1004979
:104F0000DFF888C009F1FF390B460C46871C00F119
:104F1000220A00F1A2061CE0B5F5004FA8BF47F633
:104F2000FF752FDB604525DBB0F5004FA8BF47F6C6
:104F3000FF7029DB013343450AEB010B01F102014C
:104F400024BF013400238029ABF8805026F8020DDD
:104F500015D0C3EB090037F9135037F910B002FB35
:104F60000455E043654502FB00B0D5DA604548F2E0
:104F70000105D9DA48F20100DCE700230370BDE83F
:104F8000F00F7047ADB2CDE780B2D3E70180FFFFED
:104F90002DE9F04F3D4DDFF804E12D683C4F3D4ECB
:104FA00083B04FF6FD7B0C9C05FB043303EB8304BD
:104FB00004EB0E0C14F80E909CF903A09CF80280F0
:104FC0000092A1EB4A0A054614464FFA89F9524667
:104FD0002346314829464FFA88F84FEA890912F0EA
:104FE000D9F94FEA880807EB090306EB080293F9A1
:104FF000013092F901201BFB03AB0BEB0212072AD5
:105000003EDD402AA8BF402223460094224829467C
:1050100012F0BCFB07EB090306EB080293F9023020
:1050200092F902204FF6FD7A1AFB03BA0AEB02123C
:10503000072A27DD402AA8BF40224F44294623469D
:1050400000941548464412F0A1FB97F9032096F905
:1050500003304FF6FD7111FB02AA0AEB031ABAF1F5
:10506000070F11DDBAF1400FB4BF524640220A4883
:105070000C942946234603B0BDE8F04F12F086BBDE
:105080000822C1E70822D8E70822F0E7A8120200A8
:10509000009E0200E4980200F8260020C4DBFF1FF7
:1050A000F0B50446164680686268204D831C0232C3
:1050B0002846AB606A6083B00F46F16812F0DAFDF3
:1050C000A2683369216969600232AA60284633B355
:1050D00053F8271012F0E2FD637863B9237843B1E7
:1050E0006168A26811480B24C1F18003009412F09A
:1050F00033FA03B0F0BDB0687568E168A268874212
:1051000011D00B4B581FAF420CBF1F4607460097EC
:10511000053901320548052312F05EFBDEE739460A
:1051200012F070FDD8E7034FF1E700BFF82600202A
:105130007D120200821202002DE9F04F00208BB098
:10514000FBF7A0FB002800F0D880934800210C2238
:10515000802312F095FADFF874828F4CD8F808306B
:1051600002256560A560002B40F0BF80D8F89C0048
:1051700017F0B4F884A3D3E9002317F025F984A32A
:10518000D3E9002317F04AFA17F000FC98F84D31E4
:10519000FF2B064607D0814B00932A4620467A21F2
:1051A000042312F019FB30467D497E4DDFF820A222
:1051B00017F0FCFE2B7800287DD103EB43030AEBAC
:1051C000C30331464FF07E50DE6817F0F1FD17F053
:1051D000A7F83246CDE900016F48734912F07CFD13
:1051E000D5F810906B692D790395C3EB0903D91C91
:1051F00002910F2511E09DF8143043B10699079AEA
:1052000065480B27C1F18003009712F0A5F9029AB7
:10521000B24205F10C0565DB3346B9EB03014A42A6
:105220004A41039F0795002A08BF002700265F20F8
:105230007E21032B8DF8157006968DF814200890AA
:10524000099103F1010658F823706FD003EB430373
:105250000AEBC30B0222DBF80C104F486260AA185D
:10526000A26012F007FD0799DBF810200998606032
:105270000231A160002A2ED052F82710464812F0C1
:105280000DFD9DF81520002AB5D0DBF80800DBF8ED
:1052900004E00899079A874222D0444B581F77456B
:1052A0000CBF1F4607460097053901323A480523CF
:1052B00012F092FA9FE703EB43030AEBC303304675
:1052C000DE6817F02DF83246CDE900013248384942
:1052D00012F002FD84E73048394612F093FCD0E723
:1052E000344FE0E70BB0BDE8F08F20463249DFF8DD
:1052F000E0A02C4D12F0BEFC72E70120FBF7C2FAD1
:1053000000287FF422AF0220FBF7BCFA00287FF4CC
:105310001CAF0320FBF7B6FA014600287FF415AF57
:105320001D480C22802312F083F914E73902234A26
:105330002348202301F47F41FDF764F8089A1F4BAE
:105340004FF0010C079933F8026B20680831A1EB8C
:105350005636F11002EBC11106F0070610F801E015
:105360000CFA06F64EEA0606465416498B4202F13E
:105370000102E7D15723394605A8134A09930426A9
:10538000FFF78EFE43E700BF000000A0AA46D04012
:105390000000E0FFFFFFEF41F8260020701202003E
:1053A000CDCCCC3DBC050020E47102007D12020092
:1053B000D071020082120200BC710200680000205D
:1053C000FC0C0020A80000207C930200A40C00200C
:1053D00034930200AFF300802DE9F0438768214D3C
:1053E000044640681646BA1C871CAA60284683B04B
:1053F00088466F60F168994612F03CFCA1683269FA
:10540000206968600231A96028462AB352F8281042
:1054100012F044FC63786BB9237843B16168A268E9
:1054200010480B24C1F18003009412F095F803B0EA
:10543000BDE8F083C8457068E168A26810D00A4BE7
:105440005D1F804518BF2B46009305390132054882
:10545000052312F0C1F9DFE7414612F0D3FBD9E78B
:10546000024BF1E7F82600207D12020082120200B2
:105470002DE9F00392F80480DFF874C01B4F164644
:10548000044608EB41080FCE25460FC52279336844
:105490002B604FEA0818C2F10103064623710CEB9A
:1054A000080000229119A7FB01535B0803EB43039B
:1054B000CB1A023350F8045F54F82310DFF82C9015
:1054C00001322944032A44F82310EBD15CF8083058
:1054D0001E44A9FB06394FEA590909EB4909C9EBF2
:1054E000060620462660BDE8F0037047ABAAAAAACC
:1054F00060B2FF1FF0B587B0024606466D466846AB
:105500000F46FFF7B5FF0FCD34460FC42B6823605D
:105510002FB133792BB1736A47EA0323736207B063
:10552000F0BD47F08007F6E72DE9F04FBB4DBC4CCE
:105530002D682668B5F800E02F890446AEEB1620EA
:10554000D4F8206207FB00F0001306F11007B84200
:1055500085B004DCA6F11007B84280F20D81C4F8D2
:105560002002B04FEE88FD68A6EB1525FF353F30D1
:1055700003EB652302EBE012981D7BDB062B40F367
:10558000EB800023D4F82462019302930393C4F8C0
:10559000382204F50F770623DFF894C2DFF894E28F
:1055A00001A89D1C8CFB058A06F10108AEFB08B919
:1055B000AAEBE57A50F826500AEB4A0A4FEA590955
:1055C00005EB8A0509EB490940F82650C9EB0809A3
:1055D00003F1010A06F102088CFB0A5BABEBEA7BE4
:1055E000AEFB085A50F829500BEB4B0B4FEA5A0A06
:1055F00005EB8B0B0AEB4A0ACAEB080540F829B009
:105600008CFB038C03EB0608ACEBE373AEFB08B931
:1056100003EB430E50F825304FEA590603EB8E0E8C
:1056200006EB460640F825E0C6EB0806DFF804E284
:10563000043F00208519AEFB05B35B0803EB430371
:10564000EB1A04EB830C0DF1100808EB8305DCF872
:105650002C3255F80C5C134401302B44032847F8D6
:10566000043FE7D1237D032B00F2E881DFE803F05C
:10567000C3B586590023D4F824620193029303939F
:10568000C4F8382204F50F776FF00503DFF8A4E1C2
:10569000DFF89CC1B01CAEFB005A4FEA5A0A0AEB75
:1056A0004A0ACAEB000AC3F1020801A88CFB085B96
:1056B00006F10109CBEBE87BAEFB095850F82A5004
:1056C0000BEB4B0B4FEA580805EB8B0B08EB48082C
:1056D00040F82AB0C8EB0908C3F101098CFB09BAEC
:1056E00050F82850CAEBE97909EB490905EB89051F
:1056F00040F828505B428CFB035CCCEBE37C50F819
:10570000265006EB43030CEB4C0CAEFB038E05EB73
:105710008C0540F826504FEA5E0606EB46069E1BB7
:1057200084E794F8C072404D002F3FD03F4E0120D7
:10573000D4F83C82E768FBF7A5F807EB47077B0244
:10574000013803EBC813042877D8DFE810F07101A3
:105750006B0165015F01750000208342C4F83822A7
:1057600001900290039004F50F77D4F824623FF47F
:105770005DAF3FF711AF89E73046F2E6D4F88032EB
:10578000E668294D04EB83030020D3F83C72FBF755
:1057900079F8F901034632460020FFF709FB80F350
:1057A000100094F8C0722860002FBFD1D4F8803266
:1057B000D4F80C801D4E04EB83033846D3F83C929A
:1057C000FBF760F84FEAC911034642463846FFF737
:1057D000EFFA80F310002860A9E7002900F02E817D
:1057E000124E114D336810221B8AC4F87C2283F3B9
:1057F00010032B609BE70020D4F83882E7680A4D3D
:105800000A4EFBF73FF84FEAC81103463A4600201C
:10581000FFF7CEFA80F31000286088E7F4DAFF1F64
:1058200080D9FF1FF8DAFF1F50DBFF1F60DBFF1F6F
:1058300056555555ABAAAAAA5B1013F5905300F123
:10584000B380B3F5705F00F3A5807E48376880FBB6
:105850000321DA17C2EB212101F10B02A1EB810E2A
:1058600013EB4E2337F812200BD00C3137F8111000
:10587000891A01FB03F380FB0380DB17C3EB2023B2
:105880001A44022082F31002D4F84082E7686A606A
:10589000FAF7F8FF07EB47077B02013803EBC81361
:1058A000042805D8DFE800F0ACA6A09A03005B103E
:1058B00013F5905376D4B3F5705F5ADC61483768BE
:1058C000DA1780FB03C1C2EB212101F11602A1EB23
:1058D000810E13EB4E2337F812200BD0173137F817
:1058E0001110891A01FB03F380FB0310DB17C3EBD4
:1058F00020231A440320D4F8447282F31002E4688F
:10590000AA60FAF7BFFF04EB44046302013803EB1B
:10591000C713042805D8DFE800F05B554F490300A2
:105920005B1013F590533BD4B3F5705F27DC45480B
:105930003468DA1780FB0361C2EB212101F12102F7
:10594000A1EB810613EB462334F812200BD0223151
:1059500034F81110891A01FB03F380FB0380DB1775
:10596000C3EB20231A4482F31002EA6005B0BDE8BD
:10597000F08F0A221632336833F81220BAE70A226F
:105980003368213233F8122082F31002EA6005B046
:10599000BDE8F08F0A220B32336833F8122070E72B
:1059A0000022EDE70022E5E70022F4E746F271521B
:1059B00002FB03F39B13B4E742F6ED4202FB03F351
:1059C000DB13AEE745F2B51202FB03F3DB13A8E7E6
:1059D00046F2CC3202FB03F3DB13A2E746F271522C
:1059E00002FB03F39B1363E742F6ED4202FB03F372
:1059F000DB135DE745F2B51202FB03F3DB1357E758
:105A000046F2CC3202FB03F3DB1351E746F271524C
:105A100002FB03F39B1310E742F6ED4202FB03F394
:105A2000DB130AE745F2B51202FB03F3DB1304E7CD
:105A300046F2CC3202FB03F3DB13FEE6024D034ECB
:105A400075E600BFABAAAA2A50DBFF1F60DBFF1F71
:105A5000032A11D8DFE802F0251B1102234AD2F8ED
:105A6000CC31994204DBD2F8D0319942B8BF0B4611
:105A7000C26C9A4218BFC36470471C4AD2F8B43152
:105A800099422ADA826C9A42F6D083647047174AA8
:105A9000D2F89C31994217DA426C9A42ECD04364B6
:105AA0007047124AD2F88431994204DA026C9A4261
:105AB000E2D003647047D2F88831026C9942B8BFD3
:105AC0000B469A42F5D1D7E7D2F8A031426C994201
:105AD000B8BF0B469A42E2D1CEE7D2F8B831826C19
